{
  "_format": "hh-sol-artifact-1",
  "contractName": "Genesis",
  "sourceName": "src/contracts/Genesis.sol",
  "abi": [
    {
      "inputs": [
        {
          "internalType": "uint256",
          "name": "_projectTax",
          "type": "uint256"
        }
      ],
      "stateMutability": "nonpayable",
      "type": "constructor"
    },
    {
      "anonymous": false,
      "inputs": [
        {
          "indexed": false,
          "internalType": "uint256",
          "name": "id",
          "type": "uint256"
        },
        {
          "indexed": false,
          "internalType": "string",
          "name": "actionType",
          "type": "string"
        },
        {
          "indexed": true,
          "internalType": "address",
          "name": "executor",
          "type": "address"
        },
        {
          "indexed": false,
          "internalType": "uint256",
          "name": "timestamp",
          "type": "uint256"
        }
      ],
      "name": "Action",
      "type": "event"
    },
    {
      "inputs": [
        {
          "internalType": "uint256",
          "name": "id",
          "type": "uint256"
        }
      ],
      "name": "backProject",
      "outputs": [
        {
          "internalType": "bool",
          "name": "",
          "type": "bool"
        }
      ],
      "stateMutability": "payable",
      "type": "function"
    },
    {
      "inputs": [],
      "name": "balance",
      "outputs": [
        {
          "internalType": "uint256",
          "name": "",
          "type": "uint256"
        }
      ],
      "stateMutability": "view",
      "type": "function"
    },
    {
      "inputs": [
        {
          "internalType": "uint256",
          "name": "_taxPct",
          "type": "uint256"
        }
      ],
      "name": "changeTax",
      "outputs": [],
      "stateMutability": "nonpayable",
      "type": "function"
    },
    {
      "inputs": [
        {
          "internalType": "string",
          "name": "title",
          "type": "string"
        },
        {
          "internalType": "string",
          "name": "description",
          "type": "string"
        },
        {
          "internalType": "string",
          "name": "imageURL",
          "type": "string"
        },
        {
          "internalType": "uint256",
          "name": "cost",
          "type": "uint256"
        },
        {
          "internalType": "uint256",
          "name": "expiresAt",
          "type": "uint256"
        }
      ],
      "name": "createProject",
      "outputs": [
        {
          "internalType": "bool",
          "name": "",
          "type": "bool"
        }
      ],
      "stateMutability": "nonpayable",
      "type": "function"
    },
    {
      "inputs": [
        {
          "internalType": "uint256",
          "name": "id",
          "type": "uint256"
        }
      ],
      "name": "deleteProject",
      "outputs": [
        {
          "internalType": "bool",
          "name": "",
          "type": "bool"
        }
      ],
      "stateMutability": "nonpayable",
      "type": "function"
    },
    {
      "inputs": [
        {
          "internalType": "uint256",
          "name": "id",
          "type": "uint256"
        }
      ],
      "name": "getBackers",
      "outputs": [
        {
          "components": [
            {
              "internalType": "address",
              "name": "owner",
              "type": "address"
            },
            {
              "internalType": "uint256",
              "name": "contribution",
              "type": "uint256"
            },
            {
              "internalType": "uint256",
              "name": "timestamp",
              "type": "uint256"
            },
            {
              "internalType": "bool",
              "name": "refunded",
              "type": "bool"
            }
          ],
          "internalType": "struct Genesis.backerStruct[]",
          "name": "",
          "type": "tuple[]"
        }
      ],
      "stateMutability": "view",
      "type": "function"
    },
    {
      "inputs": [
        {
          "internalType": "uint256",
          "name": "id",
          "type": "uint256"
        }
      ],
      "name": "getProject",
      "outputs": [
        {
          "components": [
            {
              "internalType": "uint256",
              "name": "id",
              "type": "uint256"
            },
            {
              "internalType": "address",
              "name": "owner",
              "type": "address"
            },
            {
              "internalType": "string",
              "name": "title",
              "type": "string"
            },
            {
              "internalType": "string",
              "name": "description",
              "type": "string"
            },
            {
              "internalType": "string",
              "name": "imageURL",
              "type": "string"
            },
            {
              "internalType": "uint256",
              "name": "cost",
              "type": "uint256"
            },
            {
              "internalType": "uint256",
              "name": "raised",
              "type": "uint256"
            },
            {
              "internalType": "uint256",
              "name": "timestamp",
              "type": "uint256"
            },
            {
              "internalType": "uint256",
              "name": "expiresAt",
              "type": "uint256"
            },
            {
              "internalType": "uint256",
              "name": "backers",
              "type": "uint256"
            },
            {
              "internalType": "enum Genesis.statusEnum",
              "name": "status",
              "type": "uint8"
            }
          ],
          "internalType": "struct Genesis.projectStruct",
          "name": "",
          "type": "tuple"
        }
      ],
      "stateMutability": "view",
      "type": "function"
    },
    {
      "inputs": [],
      "name": "getProjects",
      "outputs": [
        {
          "components": [
            {
              "internalType": "uint256",
              "name": "id",
              "type": "uint256"
            },
            {
              "internalType": "address",
              "name": "owner",
              "type": "address"
            },
            {
              "internalType": "string",
              "name": "title",
              "type": "string"
            },
            {
              "internalType": "string",
              "name": "description",
              "type": "string"
            },
            {
              "internalType": "string",
              "name": "imageURL",
              "type": "string"
            },
            {
              "internalType": "uint256",
              "name": "cost",
              "type": "uint256"
            },
            {
              "internalType": "uint256",
              "name": "raised",
              "type": "uint256"
            },
            {
              "internalType": "uint256",
              "name": "timestamp",
              "type": "uint256"
            },
            {
              "internalType": "uint256",
              "name": "expiresAt",
              "type": "uint256"
            },
            {
              "internalType": "uint256",
              "name": "backers",
              "type": "uint256"
            },
            {
              "internalType": "enum Genesis.statusEnum",
              "name": "status",
              "type": "uint8"
            }
          ],
          "internalType": "struct Genesis.projectStruct[]",
          "name": "",
          "type": "tuple[]"
        }
      ],
      "stateMutability": "view",
      "type": "function"
    },
    {
      "inputs": [],
      "name": "owner",
      "outputs": [
        {
          "internalType": "address",
          "name": "",
          "type": "address"
        }
      ],
      "stateMutability": "view",
      "type": "function"
    },
    {
      "inputs": [],
      "name": "projectCount",
      "outputs": [
        {
          "internalType": "uint256",
          "name": "",
          "type": "uint256"
        }
      ],
      "stateMutability": "view",
      "type": "function"
    },
    {
      "inputs": [
        {
          "internalType": "uint256",
          "name": "",
          "type": "uint256"
        }
      ],
      "name": "projectExist",
      "outputs": [
        {
          "internalType": "bool",
          "name": "",
          "type": "bool"
        }
      ],
      "stateMutability": "view",
      "type": "function"
    },
    {
      "inputs": [],
      "name": "projectTax",
      "outputs": [
        {
          "internalType": "uint256",
          "name": "",
          "type": "uint256"
        }
      ],
      "stateMutability": "view",
      "type": "function"
    },
    {
      "inputs": [],
      "name": "stats",
      "outputs": [
        {
          "internalType": "uint256",
          "name": "totalProjects",
          "type": "uint256"
        },
        {
          "internalType": "uint256",
          "name": "totalBacking",
          "type": "uint256"
        },
        {
          "internalType": "uint256",
          "name": "totalDonations",
          "type": "uint256"
        }
      ],
      "stateMutability": "view",
      "type": "function"
    },
    {
      "inputs": [
        {
          "internalType": "uint256",
          "name": "id",
          "type": "uint256"
        },
        {
          "internalType": "string",
          "name": "title",
          "type": "string"
        },
        {
          "internalType": "string",
          "name": "description",
          "type": "string"
        },
        {
          "internalType": "string",
          "name": "imageURL",
          "type": "string"
        },
        {
          "internalType": "uint256",
          "name": "cost",
          "type": "uint256"
        },
        {
          "internalType": "uint256",
          "name": "expiresAt",
          "type": "uint256"
        }
      ],
      "name": "updateProject",
      "outputs": [
        {
          "internalType": "bool",
          "name": "",
          "type": "bool"
        }
      ],
      "stateMutability": "nonpayable",
      "type": "function"
    }
  ],
  "bytecode": "0x608060405234801561001057600080fd5b50604051611f4d380380611f4d83398101604081905261002f91610049565b600080546001600160a01b03191633179055600155610062565b60006020828403121561005b57600080fd5b5051919050565b611edc806100716000396000f3fe6080604052600436106100dd5760003560e01c8063b69ef8a81161007f578063d24cd3ec11610059578063d24cd3ec1461025b578063d80528ae14610271578063dcc60128146102ab578063f0f3f2c8146102cd57600080fd5b8063b69ef8a8146101f8578063c9168b721461020e578063cf4a4d8b1461023b57600080fd5b80634cd0cb28116100bb5780634cd0cb281461015d5780638593054b1461017d5780638da5cb5b146101ad5780639f39a194146101e557600080fd5b8063056c29ee146100e257806336fbad26146101175780633e45c8af1461013b575b600080fd5b3480156100ee57600080fd5b506101026100fd366004611a08565b6102fa565b60405190151581526020015b60405180910390f35b34801561012357600080fd5b5061012d60025481565b60405190815260200161010e565b34801561014757600080fd5b5061015b610156366004611aa2565b610764565b005b34801561016957600080fd5b50610102610178366004611aa2565b6107b9565b34801561018957600080fd5b50610102610198366004611aa2565b600a6020526000908152604090205460ff1681565b3480156101b957600080fd5b506000546101cd906001600160a01b031681565b6040516001600160a01b03909116815260200161010e565b6101026101f3366004611aa2565b61095b565b34801561020457600080fd5b5061012d60035481565b34801561021a57600080fd5b5061022e610229366004611aa2565b610d68565b60405161010e9190611abb565b34801561024757600080fd5b50610102610256366004611b2a565b610e0a565b34801561026757600080fd5b5061012d60015481565b34801561027d57600080fd5b5060045460055460065461029092919083565b6040805193845260208401929092529082015260600161010e565b3480156102b757600080fd5b506102c0611102565b60405161010e9190611d18565b3480156102d957600080fd5b506102ed6102e8366004611aa2565b61139d565b60405161010e9190611d7a565b6000808651116103495760405162461bcd60e51b81526020600482015260156024820152745469746c652063616e6e6f7420626520656d70747960581b60448201526064015b60405180910390fd5b600085511161039a5760405162461bcd60e51b815260206004820152601b60248201527f4465736372697074696f6e2063616e6e6f7420626520656d70747900000000006044820152606401610340565b60008451116103e65760405162461bcd60e51b8152602060048201526018602482015277496d61676555524c2063616e6e6f7420626520656d70747960401b6044820152606401610340565b6000831161042c5760405162461bcd60e51b8152602060048201526013602482015272436f73742063616e6e6f74206265207a65726f60681b6044820152606401610340565b610434611859565b600254815233602080830191825260408301898152606084018990526080840188905260a084018790524260e085015261010084018690526007805460018101825560009190915284517fa66cc928b5edb82af9bd49922954155ab7b0942694bea4ce44661d9a8736c688600b90920291820190815593517fa66cc928b5edb82af9bd49922954155ab7b0942694bea4ce44661d9a8736c689820180546001600160a01b0319166001600160a01b0390921691909117905590518051859493610521937fa66cc928b5edb82af9bd49922954155ab7b0942694bea4ce44661d9a8736c68a019201906118cc565b506060820151805161053d9160038401916020909101906118cc565b50608082015180516105599160048401916020909101906118cc565b5060a0820151600582015560c0820151600682015560e0820151600782015561010082015160088201556101208201516009820155610140820151600a8201805460ff191660018360038111156105b2576105b2611c1b565b021790555050600280546000908152600a602090815260408083208054600160ff1990911681179091553384526008835281842080548083018255908552938390208751600b909502019384558683015190840180546001600160a01b0319166001600160a01b039092169190911790558501518051869550929361063f939085019291909101906118cc565b506060820151805161065b9160038401916020909101906118cc565b50608082015180516106779160048401916020909101906118cc565b5060a0820151600582015560c0820151600682015560e0820151600782015561010082015160088201556101208201516009820155610140820151600a8201805460ff191660018360038111156106d0576106d0611c1b565b021790555050506001600460000160008282546106ed9190611daa565b9091555050600280543391600080516020611e878339815191529190600061071483611dc2565b9091555060408051918252606060208301819052600f908301526e141493d29150d50810d49150551151608a1b6080830152429082015260a0015b60405180910390a25060019695505050505050565b6000546001600160a01b031633146107b45760405162461bcd60e51b81526020600482015260136024820152724f776e6572207265736572766564206f6e6c7960681b6044820152606401610340565b600155565b600080600783815481106107cf576107cf611ddd565b60009182526020909120600a600b90920201015460ff1660038111156107f7576107f7611c1b565b1461083f5760405162461bcd60e51b8152602060048201526018602482015277141c9bda9958dd081b9bc81b1bdb99d95c881bdc195b995960421b6044820152606401610340565b6007828154811061085257610852611ddd565b60009182526020909120600b90910201600101546001600160a01b031633146108b35760405162461bcd60e51b8152602060048201526013602482015272556e617574686f72697a656420456e7469747960681b6044820152606401610340565b6002600783815481106108c8576108c8611ddd565b60009182526020909120600a600b9092020101805460ff191660018360038111156108f5576108f5611c1b565b02179055506109038261167d565b60408051838152606060208201819052600f908201526e141493d29150d50811115311551151608a1b6080820152428183015290513391600080516020611e87833981519152919081900360a00190a2506001919050565b60008034116109ac5760405162461bcd60e51b815260206004820152601f60248201527f4574686572206d7573742062652067726561746572207468616e207a65726f006044820152606401610340565b6000828152600a602052604090205460ff166109fe5760405162461bcd60e51b8152602060048201526011602482015270141c9bda9958dd081b9bdd08199bdd5b99607a1b6044820152606401610340565b600060078381548110610a1357610a13611ddd565b60009182526020909120600a600b90920201015460ff166003811115610a3b57610a3b611c1b565b14610a835760405162461bcd60e51b8152602060048201526018602482015277141c9bda9958dd081b9bc81b1bdb99d95c881bdc195b995960421b6044820152606401610340565b600160046001016000828254610a999190611daa565b909155505060068054349190600090610ab3908490611daa565b925050819055503460078381548110610ace57610ace611ddd565b90600052602060002090600b02016006016000828254610aee9190611daa565b92505081905550600160078381548110610b0a57610b0a611ddd565b90600052602060002090600b02016009016000828254610b2a9190611daa565b9091555050600082815260096020908152604080832081516080808201845233808352348387019081524284870181815260608087018b8152885460018082018b55998d529b8b902097516004909c0290970180546001600160a01b0319166001600160a01b03909c169b909b178b559251968a01969096559451600289015592516003909701805460ff1916971515979097179096558351888152948501829052600e918501919091526d141493d29150d508109050d2d15160921b9084015290820152600080516020611e878339815191529060a00160405180910390a260078281548110610c1d57610c1d611ddd565b90600052602060002090600b02016005015460078381548110610c4257610c42611ddd565b90600052602060002090600b02016006015410610ced57600160078381548110610c6e57610c6e611ddd565b60009182526020909120600a600b9092020101805460ff19166001836003811115610c9b57610c9b611c1b565b021790555060078281548110610cb357610cb3611ddd565b90600052602060002090600b02016006015460036000828254610cd69190611daa565b90915550610ce590508261167d565b506001919050565b60078281548110610d0057610d00611ddd565b90600052602060002090600b0201600801544210610ce557600160078381548110610d2d57610d2d611ddd565b60009182526020909120600a600b9092020101805460ff19166001836003811115610d5a57610d5a611c1b565b0217905550610ce58261167d565b606060096000838152602001908152602001600020805480602002602001604051908101604052809291908181526020016000905b82821015610dff576000848152602090819020604080516080810182526004860290920180546001600160a01b03168352600180820154848601526002820154928401929092526003015460ff16151560608301529083529092019101610d9d565b505050509050919050565b600060078781548110610e1f57610e1f611ddd565b60009182526020909120600b90910201600101546001600160a01b03163314610e805760405162461bcd60e51b8152602060048201526013602482015272556e617574686f72697a656420456e7469747960681b6044820152606401610340565b6000865111610ec95760405162461bcd60e51b81526020600482015260156024820152745469746c652063616e6e6f7420626520656d70747960581b6044820152606401610340565b6000855111610f1a5760405162461bcd60e51b815260206004820152601b60248201527f4465736372697074696f6e2063616e6e6f7420626520656d70747900000000006044820152606401610340565b6000845111610f665760405162461bcd60e51b8152602060048201526018602482015277496d61676555524c2063616e6e6f7420626520656d70747960401b6044820152606401610340565b60008311610fac5760405162461bcd60e51b8152602060048201526013602482015272436f73742063616e6e6f74206265207a65726f60681b6044820152606401610340565b8560078881548110610fc057610fc0611ddd565b90600052602060002090600b02016002019080519060200190610fe49291906118cc565b508460078881548110610ff957610ff9611ddd565b90600052602060002090600b0201600301908051906020019061101d9291906118cc565b50836007888154811061103257611032611ddd565b90600052602060002090600b020160040190805190602001906110569291906118cc565b50826007888154811061106b5761106b611ddd565b90600052602060002090600b020160050181905550816007888154811061109457611094611ddd565b90600052602060002090600b020160080181905550336001600160a01b0316600080516020611e87833981519152884260405161074f929190918252606060208301819052600f908301526e141493d29150d50815541110551151608a1b6080830152604082015260a00190565b60606007805480602002602001604051908101604052809291908181526020016000905b828210156113945760008481526020908190206040805161016081018252600b86029092018054835260018101546001600160a01b0316938301939093526002830180549293929184019161117a90611df3565b80601f01602080910402602001604051908101604052809291908181526020018280546111a690611df3565b80156111f35780601f106111c8576101008083540402835291602001916111f3565b820191906000526020600020905b8154815290600101906020018083116111d657829003601f168201915b5050505050815260200160038201805461120c90611df3565b80601f016020809104026020016040519081016040528092919081815260200182805461123890611df3565b80156112855780601f1061125a57610100808354040283529160200191611285565b820191906000526020600020905b81548152906001019060200180831161126857829003601f168201915b5050505050815260200160048201805461129e90611df3565b80601f01602080910402602001604051908101604052809291908181526020018280546112ca90611df3565b80156113175780601f106112ec57610100808354040283529160200191611317565b820191906000526020600020905b8154815290600101906020018083116112fa57829003601f168201915b505050918352505060058201546020820152600682015460408201526007820154606082015260088201546080820152600982015460a0820152600a82015460c09091019060ff16600381111561137057611370611c1b565b600381111561138157611381611c1b565b8152505081526020019060010190611126565b50505050905090565b6113a5611859565b6000828152600a602052604090205460ff166113f75760405162461bcd60e51b8152602060048201526011602482015270141c9bda9958dd081b9bdd08199bdd5b99607a1b6044820152606401610340565b6007828154811061140a5761140a611ddd565b90600052602060002090600b020160405180610160016040529081600082015481526020016001820160009054906101000a90046001600160a01b03166001600160a01b03166001600160a01b0316815260200160028201805461146d90611df3565b80601f016020809104026020016040519081016040528092919081815260200182805461149990611df3565b80156114e65780601f106114bb576101008083540402835291602001916114e6565b820191906000526020600020905b8154815290600101906020018083116114c957829003601f168201915b505050505081526020016003820180546114ff90611df3565b80601f016020809104026020016040519081016040528092919081815260200182805461152b90611df3565b80156115785780601f1061154d57610100808354040283529160200191611578565b820191906000526020600020905b81548152906001019060200180831161155b57829003601f168201915b5050505050815260200160048201805461159190611df3565b80601f01602080910402602001604051908101604052809291908181526020018280546115bd90611df3565b801561160a5780601f106115df5761010080835404028352916020019161160a565b820191906000526020600020905b8154815290600101906020018083116115ed57829003601f168201915b505050918352505060058201546020820152600682015460408201526007820154606082015260088201546080820152600982015460a0820152600a82015460c09091019060ff16600381111561166357611663611c1b565b600381111561167457611674611c1b565b90525092915050565b60006007828154811061169257611692611ddd565b90600052602060002090600b020160060154905060006064600154836116b89190611e2e565b6116c29190611e4d565b90506003600784815481106116d9576116d9611ddd565b60009182526020909120600a600b9092020101805460ff1916600183600381111561170657611706611c1b565b021790555061174d6007848154811061172157611721611ddd565b600091825260209091206001600b9092020101546001600160a01b03166117488385611e6f565b6117f4565b600054611763906001600160a01b0316826117f4565b6007838154811061177657611776611ddd565b90600052602060002090600b020160060154600360008282546117999190611e6f565b9091555050604080518481526060602082018190526010908201526f141493d29150d508141052510813d55560821b6080820152428183015290513391600080516020611e87833981519152919081900360a00190a2505050565b6000826001600160a01b03168260405160006040518083038185875af1925050503d8060008114611841576040519150601f19603f3d011682016040523d82523d6000602084013e611846565b606091505b505090508061185457600080fd5b505050565b6040518061016001604052806000815260200160006001600160a01b031681526020016060815260200160608152602001606081526020016000815260200160008152602001600081526020016000815260200160008152602001600060038111156118c7576118c7611c1b565b905290565b8280546118d890611df3565b90600052602060002090601f0160209004810192826118fa5760008555611940565b82601f1061191357805160ff1916838001178555611940565b82800160010185558215611940579182015b82811115611940578251825591602001919060010190611925565b5061194c929150611950565b5090565b5b8082111561194c5760008155600101611951565b634e487b7160e01b600052604160045260246000fd5b600082601f83011261198c57600080fd5b813567ffffffffffffffff808211156119a7576119a7611965565b604051601f8301601f19908116603f011681019082821181831017156119cf576119cf611965565b816040528381528660208588010111156119e857600080fd5b836020870160208301376000602085830101528094505050505092915050565b600080600080600060a08688031215611a2057600080fd5b853567ffffffffffffffff80821115611a3857600080fd5b611a4489838a0161197b565b96506020880135915080821115611a5a57600080fd5b611a6689838a0161197b565b95506040880135915080821115611a7c57600080fd5b50611a898882890161197b565b9598949750949560608101359550608001359392505050565b600060208284031215611ab457600080fd5b5035919050565b602080825282518282018190526000919060409081850190868401855b82811015611b1d57815180516001600160a01b031685528681015187860152858101518686015260609081015115159085015260809093019290850190600101611ad8565b5091979650505050505050565b60008060008060008060c08789031215611b4357600080fd5b86359550602087013567ffffffffffffffff80821115611b6257600080fd5b611b6e8a838b0161197b565b96506040890135915080821115611b8457600080fd5b611b908a838b0161197b565b95506060890135915080821115611ba657600080fd5b50611bb389828a0161197b565b9350506080870135915060a087013590509295509295509295565b6000815180845260005b81811015611bf457602081850181015186830182015201611bd8565b81811115611c06576000602083870101525b50601f01601f19169290920160200192915050565b634e487b7160e01b600052602160045260246000fd5b60048110611c4f57634e487b7160e01b600052602160045260246000fd5b9052565b6000610160825184526020830151611c7660208601826001600160a01b03169052565b506040830151816040860152611c8e82860182611bce565b91505060608301518482036060860152611ca88282611bce565b91505060808301518482036080860152611cc28282611bce565b91505060a083015160a085015260c083015160c085015260e083015160e085015261010080840151818601525061012080840151818601525061014080840151611d0e82870182611c31565b5090949350505050565b6000602080830181845280855180835260408601915060408160051b870101925083870160005b82811015611d6d57603f19888603018452611d5b858351611c53565b94509285019290850190600101611d3f565b5092979650505050505050565b602081526000611d8d6020830184611c53565b9392505050565b634e487b7160e01b600052601160045260246000fd5b60008219821115611dbd57611dbd611d94565b500190565b6000600019821415611dd657611dd6611d94565b5060010190565b634e487b7160e01b600052603260045260246000fd5b600181811c90821680611e0757607f821691505b60208210811415611e2857634e487b7160e01b600052602260045260246000fd5b50919050565b6000816000190483118215151615611e4857611e48611d94565b500290565b600082611e6a57634e487b7160e01b600052601260045260246000fd5b500490565b600082821015611e8157611e81611d94565b50039056feaee8e5d3bbb2f71a951b5632cee20f7ac487b9f8ab4f66a236f7694b13af7c6aa2646970667358221220787a21ce6e7404443de61096d7b46bed2be50e75ff9d727fbec07d378098282f64736f6c634300080b0033",
  "linkReferences": {},
  "deployedLinkReferences": {}
}