{
  "_format": "hh-sol-artifact-1",
  "contractName": "Genesis",
  "sourceName": "src/contracts/Genesis.sol",
  "abi": [
    {
      "inputs": [
        {
          "internalType": "uint256",
          "name": "_projectTax",
          "type": "uint256"
        }
      ],
      "stateMutability": "nonpayable",
      "type": "constructor"
    },
    {
      "anonymous": false,
      "inputs": [
        {
          "indexed": false,
          "internalType": "uint256",
          "name": "id",
          "type": "uint256"
        },
        {
          "indexed": false,
          "internalType": "string",
          "name": "actionType",
          "type": "string"
        },
        {
          "indexed": true,
          "internalType": "address",
          "name": "executor",
          "type": "address"
        },
        {
          "indexed": false,
          "internalType": "uint256",
          "name": "timestamp",
          "type": "uint256"
        }
      ],
      "name": "Action",
      "type": "event"
    },
    {
      "inputs": [
        {
          "internalType": "uint256",
          "name": "id",
          "type": "uint256"
        }
      ],
      "name": "backProject",
      "outputs": [
        {
          "internalType": "bool",
          "name": "",
          "type": "bool"
        }
      ],
      "stateMutability": "payable",
      "type": "function"
    },
    {
      "inputs": [],
      "name": "balance",
      "outputs": [
        {
          "internalType": "uint256",
          "name": "",
          "type": "uint256"
        }
      ],
      "stateMutability": "view",
      "type": "function"
    },
    {
      "inputs": [
        {
          "internalType": "uint256",
          "name": "_taxPct",
          "type": "uint256"
        }
      ],
      "name": "changeTax",
      "outputs": [],
      "stateMutability": "nonpayable",
      "type": "function"
    },
    {
      "inputs": [
        {
          "internalType": "string",
          "name": "title",
          "type": "string"
        },
        {
          "internalType": "string",
          "name": "description",
          "type": "string"
        },
        {
          "internalType": "string",
          "name": "imageURL",
          "type": "string"
        },
        {
          "internalType": "uint256",
          "name": "cost",
          "type": "uint256"
        },
        {
          "internalType": "uint256",
          "name": "expiresAt",
          "type": "uint256"
        }
      ],
      "name": "createProject",
      "outputs": [
        {
          "internalType": "bool",
          "name": "",
          "type": "bool"
        }
      ],
      "stateMutability": "nonpayable",
      "type": "function"
    },
    {
      "inputs": [
        {
          "internalType": "uint256",
          "name": "id",
          "type": "uint256"
        }
      ],
      "name": "deleteProject",
      "outputs": [
        {
          "internalType": "bool",
          "name": "",
          "type": "bool"
        }
      ],
      "stateMutability": "nonpayable",
      "type": "function"
    },
    {
      "inputs": [
        {
          "internalType": "uint256",
          "name": "id",
          "type": "uint256"
        }
      ],
      "name": "getBackers",
      "outputs": [
        {
          "components": [
            {
              "internalType": "address",
              "name": "owner",
              "type": "address"
            },
            {
              "internalType": "uint256",
              "name": "contribution",
              "type": "uint256"
            },
            {
              "internalType": "uint256",
              "name": "timestamp",
              "type": "uint256"
            },
            {
              "internalType": "bool",
              "name": "refunded",
              "type": "bool"
            }
          ],
          "internalType": "struct Genesis.backerStruct[]",
          "name": "",
          "type": "tuple[]"
        }
      ],
      "stateMutability": "view",
      "type": "function"
    },
    {
      "inputs": [
        {
          "internalType": "uint256",
          "name": "id",
          "type": "uint256"
        }
      ],
      "name": "getProject",
      "outputs": [
        {
          "components": [
            {
              "internalType": "uint256",
              "name": "id",
              "type": "uint256"
            },
            {
              "internalType": "address",
              "name": "owner",
              "type": "address"
            },
            {
              "internalType": "string",
              "name": "title",
              "type": "string"
            },
            {
              "internalType": "string",
              "name": "description",
              "type": "string"
            },
            {
              "internalType": "string",
              "name": "imageURL",
              "type": "string"
            },
            {
              "internalType": "uint256",
              "name": "cost",
              "type": "uint256"
            },
            {
              "internalType": "uint256",
              "name": "raised",
              "type": "uint256"
            },
            {
              "internalType": "uint256",
              "name": "timestamp",
              "type": "uint256"
            },
            {
              "internalType": "uint256",
              "name": "expiresAt",
              "type": "uint256"
            },
            {
              "internalType": "uint256",
              "name": "backers",
              "type": "uint256"
            },
            {
              "internalType": "enum Genesis.statusEnum",
              "name": "status",
              "type": "uint8"
            }
          ],
          "internalType": "struct Genesis.projectStruct",
          "name": "",
          "type": "tuple"
        }
      ],
      "stateMutability": "view",
      "type": "function"
    },
    {
      "inputs": [],
      "name": "getProjects",
      "outputs": [
        {
          "components": [
            {
              "internalType": "uint256",
              "name": "id",
              "type": "uint256"
            },
            {
              "internalType": "address",
              "name": "owner",
              "type": "address"
            },
            {
              "internalType": "string",
              "name": "title",
              "type": "string"
            },
            {
              "internalType": "string",
              "name": "description",
              "type": "string"
            },
            {
              "internalType": "string",
              "name": "imageURL",
              "type": "string"
            },
            {
              "internalType": "uint256",
              "name": "cost",
              "type": "uint256"
            },
            {
              "internalType": "uint256",
              "name": "raised",
              "type": "uint256"
            },
            {
              "internalType": "uint256",
              "name": "timestamp",
              "type": "uint256"
            },
            {
              "internalType": "uint256",
              "name": "expiresAt",
              "type": "uint256"
            },
            {
              "internalType": "uint256",
              "name": "backers",
              "type": "uint256"
            },
            {
              "internalType": "enum Genesis.statusEnum",
              "name": "status",
              "type": "uint8"
            }
          ],
          "internalType": "struct Genesis.projectStruct[]",
          "name": "",
          "type": "tuple[]"
        }
      ],
      "stateMutability": "view",
      "type": "function"
    },
    {
      "inputs": [],
      "name": "owner",
      "outputs": [
        {
          "internalType": "address",
          "name": "",
          "type": "address"
        }
      ],
      "stateMutability": "view",
      "type": "function"
    },
    {
      "inputs": [
        {
          "internalType": "uint256",
          "name": "id",
          "type": "uint256"
        }
      ],
      "name": "payOutProject",
      "outputs": [
        {
          "internalType": "bool",
          "name": "",
          "type": "bool"
        }
      ],
      "stateMutability": "nonpayable",
      "type": "function"
    },
    {
      "inputs": [],
      "name": "projectCount",
      "outputs": [
        {
          "internalType": "uint256",
          "name": "",
          "type": "uint256"
        }
      ],
      "stateMutability": "view",
      "type": "function"
    },
    {
      "inputs": [
        {
          "internalType": "uint256",
          "name": "",
          "type": "uint256"
        }
      ],
      "name": "projectExist",
      "outputs": [
        {
          "internalType": "bool",
          "name": "",
          "type": "bool"
        }
      ],
      "stateMutability": "view",
      "type": "function"
    },
    {
      "inputs": [],
      "name": "projectTax",
      "outputs": [
        {
          "internalType": "uint256",
          "name": "",
          "type": "uint256"
        }
      ],
      "stateMutability": "view",
      "type": "function"
    },
    {
      "inputs": [],
      "name": "stats",
      "outputs": [
        {
          "internalType": "uint256",
          "name": "totalProjects",
          "type": "uint256"
        },
        {
          "internalType": "uint256",
          "name": "totalBacking",
          "type": "uint256"
        },
        {
          "internalType": "uint256",
          "name": "totalDonations",
          "type": "uint256"
        }
      ],
      "stateMutability": "view",
      "type": "function"
    },
    {
      "inputs": [
        {
          "internalType": "uint256",
          "name": "id",
          "type": "uint256"
        },
        {
          "internalType": "string",
          "name": "title",
          "type": "string"
        },
        {
          "internalType": "string",
          "name": "description",
          "type": "string"
        },
        {
          "internalType": "string",
          "name": "imageURL",
          "type": "string"
        },
        {
          "internalType": "uint256",
          "name": "cost",
          "type": "uint256"
        },
        {
          "internalType": "uint256",
          "name": "expiresAt",
          "type": "uint256"
        }
      ],
      "name": "updateProject",
      "outputs": [
        {
          "internalType": "bool",
          "name": "",
          "type": "bool"
        }
      ],
      "stateMutability": "nonpayable",
      "type": "function"
    }
  ],
  "bytecode": "0x608060405234801561001057600080fd5b5060405161208c38038061208c83398101604081905261002f91610049565b600080546001600160a01b03191633179055600155610062565b60006020828403121561005b57600080fd5b5051919050565b61201b806100716000396000f3fe6080604052600436106100e85760003560e01c8063b531dcba1161008a578063d24cd3ec11610059578063d24cd3ec14610286578063d80528ae1461029c578063dcc60128146102d6578063f0f3f2c8146102f857600080fd5b8063b531dcba14610203578063b69ef8a814610223578063c9168b7214610239578063cf4a4d8b1461026657600080fd5b80634cd0cb28116100c65780634cd0cb28146101685780638593054b146101885780638da5cb5b146101b85780639f39a194146101f057600080fd5b8063056c29ee146100ed57806336fbad26146101225780633e45c8af14610146575b600080fd5b3480156100f957600080fd5b5061010d610108366004611b1a565b610325565b60405190151581526020015b60405180910390f35b34801561012e57600080fd5b5061013860025481565b604051908152602001610119565b34801561015257600080fd5b50610166610161366004611bb4565b61078f565b005b34801561017457600080fd5b5061010d610183366004611bb4565b6107e4565b34801561019457600080fd5b5061010d6101a3366004611bb4565b600a6020526000908152604090205460ff1681565b3480156101c457600080fd5b506000546101d8906001600160a01b031681565b6040516001600160a01b039091168152602001610119565b61010d6101fe366004611bb4565b610960565b34801561020f57600080fd5b5061010d61021e366004611bb4565b610d6d565b34801561022f57600080fd5b5061013860035481565b34801561024557600080fd5b50610259610254366004611bb4565b610ea0565b6040516101199190611bcd565b34801561027257600080fd5b5061010d610281366004611c3c565b610f42565b34801561029257600080fd5b5061013860015481565b3480156102a857600080fd5b506004546005546006546102bb92919083565b60408051938452602084019290925290820152606001610119565b3480156102e257600080fd5b506102eb611214565b6040516101199190611e2a565b34801561030457600080fd5b50610318610313366004611bb4565b6114af565b6040516101199190611e8c565b6000808651116103745760405162461bcd60e51b81526020600482015260156024820152745469746c652063616e6e6f7420626520656d70747960581b60448201526064015b60405180910390fd5b60008551116103c55760405162461bcd60e51b815260206004820152601b60248201527f4465736372697074696f6e2063616e6e6f7420626520656d7074790000000000604482015260640161036b565b60008451116104115760405162461bcd60e51b8152602060048201526018602482015277496d61676555524c2063616e6e6f7420626520656d70747960401b604482015260640161036b565b600083116104575760405162461bcd60e51b8152602060048201526013602482015272436f73742063616e6e6f74206265207a65726f60681b604482015260640161036b565b61045f61196b565b600254815233602080830191825260408301898152606084018990526080840188905260a084018790524260e085015261010084018690526007805460018101825560009190915284517fa66cc928b5edb82af9bd49922954155ab7b0942694bea4ce44661d9a8736c688600b90920291820190815593517fa66cc928b5edb82af9bd49922954155ab7b0942694bea4ce44661d9a8736c689820180546001600160a01b0319166001600160a01b039092169190911790559051805185949361054c937fa66cc928b5edb82af9bd49922954155ab7b0942694bea4ce44661d9a8736c68a019201906119de565b50606082015180516105689160038401916020909101906119de565b50608082015180516105849160048401916020909101906119de565b5060a0820151600582015560c0820151600682015560e0820151600782015561010082015160088201556101208201516009820155610140820151600a8201805460ff191660018360038111156105dd576105dd611d2d565b021790555050600280546000908152600a602090815260408083208054600160ff1990911681179091553384526008835281842080548083018255908552938390208751600b909502019384558683015190840180546001600160a01b0319166001600160a01b039092169190911790558501518051869550929361066a939085019291909101906119de565b50606082015180516106869160038401916020909101906119de565b50608082015180516106a29160048401916020909101906119de565b5060a0820151600582015560c0820151600682015560e0820151600782015561010082015160088201556101208201516009820155610140820151600a8201805460ff191660018360038111156106fb576106fb611d2d565b021790555050506001600460000160008282546107189190611ebc565b9091555050600280543391600080516020611fc68339815191529190600061073f83611ed4565b9091555060408051918252606060208301819052600f908301526e141493d29150d50810d49150551151608a1b6080830152429082015260a0015b60405180910390a25060019695505050505050565b6000546001600160a01b031633146107df5760405162461bcd60e51b81526020600482015260136024820152724f776e6572207265736572766564206f6e6c7960681b604482015260640161036b565b600155565b600080600783815481106107fa576107fa611eef565b60009182526020909120600a600b90920201015460ff16600381111561082257610822611d2d565b1461086a5760405162461bcd60e51b8152602060048201526018602482015277141c9bda9958dd081b9bc81b1bdb99d95c881bdc195b995960421b604482015260640161036b565b6007828154811061087d5761087d611eef565b60009182526020909120600b90910201600101546001600160a01b031633146108b85760405162461bcd60e51b815260040161036b90611f05565b6002600783815481106108cd576108cd611eef565b60009182526020909120600a600b9092020101805460ff191660018360038111156108fa576108fa611d2d565b02179055506109088261178f565b60408051838152606060208201819052600f908201526e141493d29150d50811115311551151608a1b6080820152428183015290513391600080516020611fc6833981519152919081900360a00190a2506001919050565b60008034116109b15760405162461bcd60e51b815260206004820152601f60248201527f4574686572206d7573742062652067726561746572207468616e207a65726f00604482015260640161036b565b6000828152600a602052604090205460ff16610a035760405162461bcd60e51b8152602060048201526011602482015270141c9bda9958dd081b9bdd08199bdd5b99607a1b604482015260640161036b565b600060078381548110610a1857610a18611eef565b60009182526020909120600a600b90920201015460ff166003811115610a4057610a40611d2d565b14610a885760405162461bcd60e51b8152602060048201526018602482015277141c9bda9958dd081b9bc81b1bdb99d95c881bdc195b995960421b604482015260640161036b565b600160046001016000828254610a9e9190611ebc565b909155505060068054349190600090610ab8908490611ebc565b925050819055503460078381548110610ad357610ad3611eef565b90600052602060002090600b02016006016000828254610af39190611ebc565b92505081905550600160078381548110610b0f57610b0f611eef565b90600052602060002090600b02016009016000828254610b2f9190611ebc565b9091555050600082815260096020908152604080832081516080808201845233808352348387019081524284870181815260608087018b8152885460018082018b55998d529b8b902097516004909c0290970180546001600160a01b0319166001600160a01b03909c169b909b178b559251968a01969096559451600289015592516003909701805460ff1916971515979097179096558351888152948501829052600e918501919091526d141493d29150d508109050d2d15160921b9084015290820152600080516020611fc68339815191529060a00160405180910390a260078281548110610c2257610c22611eef565b90600052602060002090600b02016005015460078381548110610c4757610c47611eef565b90600052602060002090600b02016006015410610cf257600160078381548110610c7357610c73611eef565b60009182526020909120600a600b9092020101805460ff19166001836003811115610ca057610ca0611d2d565b021790555060078281548110610cb857610cb8611eef565b90600052602060002090600b02016006015460036000828254610cdb9190611ebc565b90915550610cea90508261178f565b506001919050565b60078281548110610d0557610d05611eef565b90600052602060002090600b0201600801544210610cea57600160078381548110610d3257610d32611eef565b60009182526020909120600a600b9092020101805460ff19166001836003811115610d5f57610d5f611d2d565b0217905550610cea8261178f565b60008060078381548110610d8357610d83611eef565b60009182526020909120600a600b90920201015460ff166003811115610dab57610dab611d2d565b1480610df15750600160078381548110610dc757610dc7611eef565b60009182526020909120600a600b90920201015460ff166003811115610def57610def611d2d565b145b610e345760405162461bcd60e51b8152602060048201526014602482015273141c9bda9958dd081b9bdd081054141493d5915160621b604482015260640161036b565b60078281548110610e4757610e47611eef565b60009182526020909120600b90910201600101546001600160a01b0316331480610e7b57506000546001600160a01b031633145b610e975760405162461bcd60e51b815260040161036b90611f05565b610cea8261178f565b606060096000838152602001908152602001600020805480602002602001604051908101604052809291908181526020016000905b82821015610f37576000848152602090819020604080516080810182526004860290920180546001600160a01b03168352600180820154848601526002820154928401929092526003015460ff16151560608301529083529092019101610ed5565b505050509050919050565b600060078781548110610f5757610f57611eef565b60009182526020909120600b90910201600101546001600160a01b03163314610f925760405162461bcd60e51b815260040161036b90611f05565b6000865111610fdb5760405162461bcd60e51b81526020600482015260156024820152745469746c652063616e6e6f7420626520656d70747960581b604482015260640161036b565b600085511161102c5760405162461bcd60e51b815260206004820152601b60248201527f4465736372697074696f6e2063616e6e6f7420626520656d7074790000000000604482015260640161036b565b60008451116110785760405162461bcd60e51b8152602060048201526018602482015277496d61676555524c2063616e6e6f7420626520656d70747960401b604482015260640161036b565b600083116110be5760405162461bcd60e51b8152602060048201526013602482015272436f73742063616e6e6f74206265207a65726f60681b604482015260640161036b565b85600788815481106110d2576110d2611eef565b90600052602060002090600b020160020190805190602001906110f69291906119de565b50846007888154811061110b5761110b611eef565b90600052602060002090600b0201600301908051906020019061112f9291906119de565b50836007888154811061114457611144611eef565b90600052602060002090600b020160040190805190602001906111689291906119de565b50826007888154811061117d5761117d611eef565b90600052602060002090600b02016005018190555081600788815481106111a6576111a6611eef565b90600052602060002090600b020160080181905550336001600160a01b0316600080516020611fc6833981519152884260405161077a929190918252606060208301819052600f908301526e141493d29150d50815541110551151608a1b6080830152604082015260a00190565b60606007805480602002602001604051908101604052809291908181526020016000905b828210156114a65760008481526020908190206040805161016081018252600b86029092018054835260018101546001600160a01b0316938301939093526002830180549293929184019161128c90611f32565b80601f01602080910402602001604051908101604052809291908181526020018280546112b890611f32565b80156113055780601f106112da57610100808354040283529160200191611305565b820191906000526020600020905b8154815290600101906020018083116112e857829003601f168201915b5050505050815260200160038201805461131e90611f32565b80601f016020809104026020016040519081016040528092919081815260200182805461134a90611f32565b80156113975780601f1061136c57610100808354040283529160200191611397565b820191906000526020600020905b81548152906001019060200180831161137a57829003601f168201915b505050505081526020016004820180546113b090611f32565b80601f01602080910402602001604051908101604052809291908181526020018280546113dc90611f32565b80156114295780601f106113fe57610100808354040283529160200191611429565b820191906000526020600020905b81548152906001019060200180831161140c57829003601f168201915b505050918352505060058201546020820152600682015460408201526007820154606082015260088201546080820152600982015460a0820152600a82015460c09091019060ff16600381111561148257611482611d2d565b600381111561149357611493611d2d565b8152505081526020019060010190611238565b50505050905090565b6114b761196b565b6000828152600a602052604090205460ff166115095760405162461bcd60e51b8152602060048201526011602482015270141c9bda9958dd081b9bdd08199bdd5b99607a1b604482015260640161036b565b6007828154811061151c5761151c611eef565b90600052602060002090600b020160405180610160016040529081600082015481526020016001820160009054906101000a90046001600160a01b03166001600160a01b03166001600160a01b0316815260200160028201805461157f90611f32565b80601f01602080910402602001604051908101604052809291908181526020018280546115ab90611f32565b80156115f85780601f106115cd576101008083540402835291602001916115f8565b820191906000526020600020905b8154815290600101906020018083116115db57829003601f168201915b5050505050815260200160038201805461161190611f32565b80601f016020809104026020016040519081016040528092919081815260200182805461163d90611f32565b801561168a5780601f1061165f5761010080835404028352916020019161168a565b820191906000526020600020905b81548152906001019060200180831161166d57829003601f168201915b505050505081526020016004820180546116a390611f32565b80601f01602080910402602001604051908101604052809291908181526020018280546116cf90611f32565b801561171c5780601f106116f15761010080835404028352916020019161171c565b820191906000526020600020905b8154815290600101906020018083116116ff57829003601f168201915b505050918352505060058201546020820152600682015460408201526007820154606082015260088201546080820152600982015460a0820152600a82015460c09091019060ff16600381111561177557611775611d2d565b600381111561178657611786611d2d565b90525092915050565b6000600782815481106117a4576117a4611eef565b90600052602060002090600b020160060154905060006064600154836117ca9190611f6d565b6117d49190611f8c565b90506003600784815481106117eb576117eb611eef565b60009182526020909120600a600b9092020101805460ff1916600183600381111561181857611818611d2d565b021790555061185f6007848154811061183357611833611eef565b600091825260209091206001600b9092020101546001600160a01b031661185a8385611fae565b611906565b600054611875906001600160a01b031682611906565b6007838154811061188857611888611eef565b90600052602060002090600b020160060154600360008282546118ab9190611fae565b9091555050604080518481526060602082018190526010908201526f141493d29150d508141052510813d55560821b6080820152428183015290513391600080516020611fc6833981519152919081900360a00190a2505050565b6000826001600160a01b03168260405160006040518083038185875af1925050503d8060008114611953576040519150601f19603f3d011682016040523d82523d6000602084013e611958565b606091505b505090508061196657600080fd5b505050565b6040518061016001604052806000815260200160006001600160a01b031681526020016060815260200160608152602001606081526020016000815260200160008152602001600081526020016000815260200160008152602001600060038111156119d9576119d9611d2d565b905290565b8280546119ea90611f32565b90600052602060002090601f016020900481019282611a0c5760008555611a52565b82601f10611a2557805160ff1916838001178555611a52565b82800160010185558215611a52579182015b82811115611a52578251825591602001919060010190611a37565b50611a5e929150611a62565b5090565b5b80821115611a5e5760008155600101611a63565b634e487b7160e01b600052604160045260246000fd5b600082601f830112611a9e57600080fd5b813567ffffffffffffffff80821115611ab957611ab9611a77565b604051601f8301601f19908116603f01168101908282118183101715611ae157611ae1611a77565b81604052838152866020858801011115611afa57600080fd5b836020870160208301376000602085830101528094505050505092915050565b600080600080600060a08688031215611b3257600080fd5b853567ffffffffffffffff80821115611b4a57600080fd5b611b5689838a01611a8d565b96506020880135915080821115611b6c57600080fd5b611b7889838a01611a8d565b95506040880135915080821115611b8e57600080fd5b50611b9b88828901611a8d565b9598949750949560608101359550608001359392505050565b600060208284031215611bc657600080fd5b5035919050565b602080825282518282018190526000919060409081850190868401855b82811015611c2f57815180516001600160a01b031685528681015187860152858101518686015260609081015115159085015260809093019290850190600101611bea565b5091979650505050505050565b60008060008060008060c08789031215611c5557600080fd5b86359550602087013567ffffffffffffffff80821115611c7457600080fd5b611c808a838b01611a8d565b96506040890135915080821115611c9657600080fd5b611ca28a838b01611a8d565b95506060890135915080821115611cb857600080fd5b50611cc589828a01611a8d565b9350506080870135915060a087013590509295509295509295565b6000815180845260005b81811015611d0657602081850181015186830182015201611cea565b81811115611d18576000602083870101525b50601f01601f19169290920160200192915050565b634e487b7160e01b600052602160045260246000fd5b60048110611d6157634e487b7160e01b600052602160045260246000fd5b9052565b6000610160825184526020830151611d8860208601826001600160a01b03169052565b506040830151816040860152611da082860182611ce0565b91505060608301518482036060860152611dba8282611ce0565b91505060808301518482036080860152611dd48282611ce0565b91505060a083015160a085015260c083015160c085015260e083015160e085015261010080840151818601525061012080840151818601525061014080840151611e2082870182611d43565b5090949350505050565b6000602080830181845280855180835260408601915060408160051b870101925083870160005b82811015611e7f57603f19888603018452611e6d858351611d65565b94509285019290850190600101611e51565b5092979650505050505050565b602081526000611e9f6020830184611d65565b9392505050565b634e487b7160e01b600052601160045260246000fd5b60008219821115611ecf57611ecf611ea6565b500190565b6000600019821415611ee857611ee8611ea6565b5060010190565b634e487b7160e01b600052603260045260246000fd5b602080825260139082015272556e617574686f72697a656420456e7469747960681b604082015260600190565b600181811c90821680611f4657607f821691505b60208210811415611f6757634e487b7160e01b600052602260045260246000fd5b50919050565b6000816000190483118215151615611f8757611f87611ea6565b500290565b600082611fa957634e487b7160e01b600052601260045260246000fd5b500490565b600082821015611fc057611fc0611ea6565b50039056feaee8e5d3bbb2f71a951b5632cee20f7ac487b9f8ab4f66a236f7694b13af7c6aa26469706673582212206c151efa39ca2d5b8c0799d6cf684c07fae20fafabe231450572771c00fcde4964736f6c634300080b0033",
  "linkReferences": {},
  "deployedLinkReferences": {}
}